:100000000C943E000C9453000C9453000C94530039
:100010000C9453000C9453000C9453000C94530014
:100020000C9453000C9453000C9453000C94530004
:100030000C9453000C9453000C9453000C945300F4
:100040000C9453000C9453000C9453000C945300E4
:100050000C9453000C9453000C9453000C945300D4
:100060000C9453000C9453000C9453000C945300C4
:100070000C9453000C9453000C94530011241FBE95
:10008000CFEFD8E0DEBFCDBF11E0A0E0B1E0E6E207
:10009000FDE002C005900D92AE31B107D9F70E9484
:1000A000A6040C9491060C940000EF92FF920F931B
:1000B0001F93CF93DF93CDB7DEB76C970FB6F8944D
:1000C000DEBF0FBECDBF8C010E941303C801019695
:1000D0000E942D04C80103960E94B303780184E0B6
:1000E000E80EF11CC7010E945902CE0101960E9440
:1000F0001303CE0101960E942D0489819A81F80193
:1001000092838183CE0101960E94B303CE010196B2
:100110000E9459028CE1FE013196D70101900D92A7
:100120008A95E1F76C960FB6F894DEBF0FBECDBF8F
:10013000DF91CF911F910F91FF90EF900895CF9392
:10014000DF93CDB7DEB728970FB6F894DEBF0FBEAA
:10015000CDBF7C015E0124E0A20EB11CC5010E944E
:100160001102670133E0C30ED11CC6010E942A04AC
:100170008E010F5F1F4FC8010E942D04CE01039610
:100180000E942D029A2C8B2C702E612E66E0872DFA
:10019000962D0E948504082F67E0872D962D0E94DA
:1001A0008504B82ED70111968C91282F30E050E0AD
:1001B00040E02D833E834F835887CA01B9010E94D6
:1001C00074052B01A82E192F802F90E0B0E0A0E03D
:1001D0008D839E83AF83B887BC01CD010E947205D9
:1001E00092014A2D512F6D837E838F8398876D8175
:1001F0007E818F8198850E94D10420E030E048EC18
:1002000052E46D837E838F8398876D817E818F8199
:1002100098850E9424066D837E838F8398876D81E5
:100220007E818F8198850E944305062F2B2D30E01B
:1002300050E040E02D833E834F835887CA01B901C7
:100240000E94720592014A2D512F6D837E838F8308
:1002500098876D817E818F8198850E94D10420E0EE
:1002600030E048EC52E46D837E838F8398876D8104
:100270007E818F8198850E9424066D837E838F8383
:1002800098876D817E818F8198850E944305162F06
:100290006B2D892D982D0E942602D70111966C9105
:1002A000892D982D0E942602612F892D982D0E945C
:1002B00026020E36C8F01E3638F414E60F3630F437
:1002C000C6010E942A0462CF0E3681F067E3600FF8
:1002D000C6010E94B7031F3608F458CF67E3610FC9
:1002E000C6010E94D30352CF1E3650F31E36B1F71B
:1002F000E7CFF8948AB18AB984B1836084B9E89A67
:10030000E9E6F0E080818260808378940895CF935D
:10031000DF93EC012496CE010E94E6028A3138F484
:10032000CE010E94E602982F81E09F3008F480E021
:10033000DF91CF9108950F931F93CF93DF93EC013B
:100340008FE19EE40197F1F700C00000CE010E940A
:1003500087018E010D5F1F4F882371F148EC50E03B
:1003600068EC70E0C8010E94EF032496CE010E9461
:10037000E602863160F4CE010E94E602893138F04F
:100380004AEA50E068EC70E0C8010E94EF03CE0139
:100390000E94E6028031B8F0CE010E94E60283316D
:1003A00090F048EC50E06AEA70E0C801DF91CF912C
:1003B0001F910F910C94EF03C801DF91CF911F9112
:1003C0000F910C942A04DF91CF911F910F91089502
:1003D0000F931F93CF93DF93EC018C010D5F1F4FA1
:1003E000CE010E948701811111C048EC50E060EA03
:1003F00070E0C8010E94EF032FEF83ED90E32150DE
:1004000080409040E1F700C00000EACFDF91CF913B
:100410001F910F91089580E00895FC0181819281E0
:1004200008951092C5008FEC8093C4001092C00014
:1004300088E18093C10086E08093C2000895809196
:10044000C00087FFFCCF8091C60008958091C00056
:1004500085FFFCCF6093C600089510927C0086E86B
:1004600080937A00089510927A00089580917C001C
:10047000807E80937C0080917C006770682B609305
:100480007C0080917A00806480937A0080917A0069
:1004900084FFFCCF80917A00806180937A00209164
:1004A00078008091790090E0982F8827820F911D25
:1004B0000895DC019BE1E2E0F1E0119601900D92DC
:1004C0009A95E1F70C980895DF92EF92FF920F93BF
:1004D0001F93CF93DF93CDB7DEB72A970FB6F8946B
:1004E000DEBF0FBECDBF8C01E62EF12CDC011196D4
:1004F0008C91F701E81BF1099F01FF0F440B550B8D
:1005000029833A834B835C83CA01B9010E94740535
:10051000DC01CB01BF7789839A83AB83BC83BC01A9
:10052000CD010E94430569870F5F1F4F94E09A87B2
:1005300084E0D82ED8018D918D01F701E81BF109D7
:100540009F01FF0F440B550B29833A834B835C8338
:10055000CA01B9010E947405DC01CB01BF77898310
:100560009A83AB83BC833985232F30E050E040E091
:100570002D833E834F835887CA01B9010E947405B9
:100580009B01AC0169817A818B819C810E94CC04A2
:1005900087FF08C069817A818B819C810E94430515
:1005A0006987DA844A854F5F4A874F3119F68D2D66
:1005B0002A960FB6F894DEBF0FBECDBFDF91CF9164
:1005C0001F910F91FF90EF90DF9008950F931F936D
:1005D000CF93DF930F92CDB7DEB78C01CE0101969A
:1005E0000E942D0264E0CE0101960E94360296958B
:1005F000879596958795F80180838FE59AEE019708
:10060000F1F700C000006081C8010E946402182F49
:10061000CE0101960E943302812F0F90DF91CF917E
:100620001F910F91089581B1836081B90895CF938F
:10063000DF93D82FC92F623071F028F4611108C000
:100640001198109A02C06330D9F0DF91CF910895CC
:100650001098119AFACF61E00E9417038FEC97E08F
:100660000197F1F700C0000060E08D2F9C2F0E94E1
:1006700017038FE39FE10197F1F700C00000E5CF7A
:1006800082B18C7F82B9E1CFFF920F931F93CF93FA
:10069000DF93182F092FC62FD42F613021F162303C
:1006A00009F440C0611159C0CD1709F456C060E08B
:1006B000812F902F0E9417032FEF80E792E02150A7
:1006C00080409040E1F700C0000082B18C7F82B989
:1006D0002FEF80E792E0215080409040E1F700C08A
:1006E0000000CF5FE1CFC0E0CD17B9F161E0812F0D
:1006F000902F0E9417032FEF80E792E02150804057
:100700009040E1F700C0000082B18C7F82B92FEFEA
:1007100080E792E0215080409040E1F700C0000067
:10072000CF5FE2CFC0E0CD17C1F084E1F82E62E0E8
:10073000812F902F0E941703FA94F110F8CF82B105
:100740008C7F82B92FEF80E792E02150804090406B
:10075000E1F700C00000CF5FE6CFDF91CF911F919E
:100760000F91FF90089584B18C6384B9089568BD9A
:1007700084B5816284BD84B58F7E84BD85B5826079
:1007800085BD249A2D98089568BD84B5816284BD85
:1007900084B58F7E84BD85B5826085BD84B180635C
:1007A00084B92D9A089567BD84B5816884BD84B5E8
:1007B0008F7B84BD85B5826085BD239A2A98089574
:1007C00067BD84B5816884BD84B58F7B84BD85B5E4
:1007D000826085BD84B18C6084B92A9A08950F9394
:1007E0001F93CF93DF938C01FB019A01809100014D
:1007F00090E0CC27DD27C81BD90BBE01EC17FD0705
:100800002CF0BC01E817F9070CF4BF012C173D07C9
:100810002CF0EC01281739070CF4E90177FF0FC021
:100820006195C8010E94E0036C2FD7FF0CC0619551
:10083000C801DF91CF911F910F910C94C403C8019F
:100840000E94D303F1CFC801DF91CF911F910F9187
:100850000C94B70317BC18BC08958F929F92AF9267
:10086000BF92CF92DF92EF92FF920F931F93CF939D
:10087000DF930F92CDB7DEB78C01FC01108211829D
:1008800081B18F7381B9CE0101967C010E942D0246
:100890004AEF842E912CD12CC12CB12CA12C66E0D6
:1008A000C7010E9436029695879596958795A80E62
:1008B000B91E67E0C7010E94360296958795969506
:1008C0008795C80ED91E91E0891A910841F72AEF41
:1008D00030E0C501B9010E94B804F8016083C60187
:1008E000B9010E94B8046183C7010E9433020F90CE
:1008F000DF91CF911F910F91FF90EF90DF90CF90FC
:10090000BF90AF909F908F9008950F931F93CF93B8
:10091000DF930F92CDB7DEB7162FCE0101960E945E
:100920002D02612FCE0101960E9436028C01CE016C
:1009300001960E943302C8019695879596958795F2
:100940000F90DF91CF911F910F910895CDB7DEB732
:10095000A1970FB6F894DEBF0FBECDBF8E010F5F1B
:100960001F4FC8010E945500C8010E949B01FCCF87
:10097000AA1BBB1B51E107C0AA1FBB1FA617B707C5
:1009800010F0A61BB70B881F991F5A95A9F78095E1
:100990009095BC01CD0108950E94AF0508F481E057
:1009A00008950E94E5040C94EA050E94E30558F0BE
:1009B0000E94DC0540F029F45F3F29F00C94D30538
:1009C00051110C941E060C94D9050E94FB0568F386
:1009D0009923B1F3552391F3951B550BBB27AA27F8
:1009E00062177307840738F09F5F5F4F220F331F32
:1009F000441FAA1FA9F335D00E2E3AF0E0E832D0FA
:100A000091505040E695001CCAF72BD0FE2F29D0FC
:100A1000660F771F881FBB1F261737074807AB07CE
:100A2000B0E809F0BB0B802DBF01FF2793585F4F43
:100A30003AF09E3F510578F00C94D3050C941E06B5
:100A40005F3FE4F3983ED4F3869577956795B79525
:100A5000F7959F5FC9F7880F911D9695879597F930
:100A60000895E1E0660F771F881FBB1F62177307A9
:100A70008407BA0720F0621B730B840BBA0BEE1FBE
:100A800088F7E09508950E94030688F09F5798F034
:100A9000B92F9927B751B0F0E1F0660F771F881F83
:100AA000991F1AF0BA95C9F714C0B13091F00E949D
:100AB0001D06B1E008950C941D06672F782F882736
:100AC000B85F39F0B93FCCF3869577956795B395C4
:100AD000D9F73EF490958095709561957F4F8F4F33
:100AE0009F4F0895E89409C097FB3EF49095809538
:100AF000709561957F4F8F4F9F4F9923A9F0F92FE4
:100B000096E9BB279395F695879577956795B79561
:100B1000F111F8CFFAF4BB0F11F460FF1BC06F5F47
:100B20007F4F8F4F9F4F16C0882311F096E911C059
:100B3000772321F09EE8872F762F05C0662371F07A
:100B400096E8862F70E060E02AF09A95660F771F8E
:100B5000881FDAF7880F9695879597F90895990F6A
:100B60000008550FAA0BE0E8FEEF16161706E80777
:100B7000F907C0F012161306E407F50798F0621B98
:100B8000730B840B950B39F40A2661F0232B242B6D
:100B9000252B21F408950A2609F4A140A6958FEF8C
:100BA000811D811D089597F99F6780E870E060E0DE
:100BB00008959FEF80EC089500240A9416161706F6
:100BC00018060906089500240A941216130614063E
:100BD00005060895092E0394000C11F4882352F0A1
:100BE000BB0F40F4BF2B11F460FF04C06F5F7F4F59
:100BF0008F4F9F4F089557FD9058440F551F59F040
:100C00005F3F71F04795880F97FB991F61F09F3FF9
:100C100079F087950895121613061406551FF2CF22
:100C20004695F1DF08C0161617061806991FF1CF72
:100C300086957105610508940895E894BB27662799
:100C40007727CB0197F908950E9437060C94EA059F
:100C50000E94DC0538F00E94E30520F0952311F096
:100C60000C94D3050C94D90511240C941E060E94F3
:100C7000FB0570F3959FC1F3950F50E0551F629FE0
:100C8000F001729FBB27F00DB11D639FAA27F00DE5
:100C9000B11DAA1F649F6627B00DA11D661F829F0C
:100CA0002227B00DA11D621F739FB00DA11D621FF1
:100CB000839FA00D611D221F749F3327A00D611D0E
:100CC000231F849F600D211D822F762F6A2F1124F0
:100CD0009F5750409AF0F1F088234AF0EE0FFF1F23
:100CE000BB1F661F771F881F91505040A9F79E3F7A
:100CF000510580F00C94D3050C941E065F3FE4F37D
:100D0000983ED4F3869577956795B795F795E795CF
:100D10009F5FC1F7FE2B880F911D9695879597F9D8
:060D20000895F894FFCFD6
:100D2600FF9BAEB9B8B7AC92817F716D69615B57B5
:0E0D3600524E4D4744413E3D3A393836350065
:00000001FF
