:100000000C943E000C9453000C9453000C94530039
:100010000C9453000C9453000C9453000C94530014
:100020000C9453000C9453000C9453000C94530004
:100030000C9453000C9453000C9453000C945300F4
:100040000C9453000C9453000C9453000C945300E4
:100050000C9453000C9453000C9453000C945300D4
:100060000C9453000C9453000C9453000C945300C4
:100070000C9453000C9453000C94530011241FBE95
:10008000CFEFD8E0DEBFCDBF11E0A0E0B1E0E2EFFE
:10009000F9E002C005900D92A230B107D9F70E9495
:1000A00034030C94F7040C9400000F931F93CF9328
:1000B000DF9300D0CDB7DEB78C010E94A101C8014B
:1000C00001960E944102C80103960E94BA02CE0125
:1000D00001960E94A101CE0101960E9441028981F0
:1000E0009A81F80192838183CE0101960E94BA021F
:1000F0000F900F90DF91CF911F910F910895CF93A3
:10010000DF93CDB7DEB728970FB6F894DEBF0FBEEA
:10011000CDBF7C015E0124E0A20EB11CC5010E948E
:100120005901670133E0C30ED11CC6010E9431039F
:100130008E010F5F1F4FC8010E944102CE0103963E
:100140000E9475019A2C8B2C702E612E66E0872DF3
:10015000962D0E949902082F67E0872D962D0E9408
:100160009902B82ED70111968C91282F30E050E0DB
:1001700040E02D833E834F835887CA01B9010E9416
:10018000FE032B01A82E192F802F90E0B0E0A0E0F5
:100190008D839E83AF83B887BC01CD010E94FC0391
:1001A00092014A2D512F6D837E838F8398876D81B5
:1001B0007E818F8198850E945B0320E030E048ECCF
:1001C00052E46D837E838F8398876D817E818F81DA
:1001D00098850E948A046D837E838F8398876D81C2
:1001E0007E818F8198850E94CD03062F2B2D30E0D4
:1001F00050E040E02D833E834F835887CA01B90108
:100200000E94FC0392014A2D512F6D837E838F83C0
:1002100098876D817E818F8198850E945B0320E0A5
:1002200030E048EC52E46D837E838F8398876D8144
:100230007E818F8198850E948A046D837E838F835F
:1002400098876D817E818F8198850E94CD03162FBE
:100250006B2D892D982D0E946E01D70111966C91FE
:10026000892D982D0E946E01612F892D982D0E9455
:100270006E010E36C8F01E3638F414E60F3630F430
:10028000C6010E94310362CF0E3681F067E3600F32
:10029000C6010E94BE021F3608F458CF67E3610F03
:1002A000C6010E94DA0252CF1E3650F31E36B1F755
:1002B000E7CF1092C5008FEC8093C4001092C0006D
:1002C00088E18093C10086E08093C2000895809108
:1002D000C00087FFFCCF8091C60008958091C000C8
:1002E00085FFFCCF6093C600089510927C0086E8DD
:1002F00080937A00089510927A00089580917C008E
:10030000807E80937C0080917C006770682B609376
:100310007C0080917A00806480937A0080917A00DA
:1003200084FFFCCF80917A00806180937A002091D5
:1003300078008091790090E0982F8827820F911D96
:10034000089581B1836081B90895CF93DF93D82F49
:10035000C92F623071F028F4611108C01198109A09
:1003600002C06330D9F0DF91CF9108951098119AAF
:10037000FACF61E00E94A5018FEC97E00197F1F7B9
:1003800000C0000060E08D2F9C2F0E94A5018FE32C
:100390009FE10197F1F700C00000E5CF82B18C7FAB
:1003A00082B9E1CFFF920F931F93CF93DF93182F62
:1003B000092FC62FD42F613021F1623009F440C0DB
:1003C000611159C0CD1709F456C060E0812F902FFC
:1003D0000E94A5012FEF80E792E0215080409040DD
:1003E000E1F700C0000082B18C7F82B92FEF80E777
:1003F00092E0215080409040E1F700C00000CF5FC4
:10040000E1CFC0E0CD17B9F161E0812F902F0E94BC
:10041000A5012FEF80E792E0215080409040E1F766
:1004200000C0000082B18C7F82B92FEF80E792E09C
:10043000215080409040E1F700C00000CF5FE2CF44
:10044000C0E0CD17C1F084E1F82E62E0812F902F3B
:100450000E94A501FA94F110F8CF82B18C7F82B985
:100460002FEF80E792E0215080409040E1F700C0FC
:100470000000CF5FE6CFDF91CF911F910F91FF90EA
:1004800008958F929F92AF92BF92CF92DF92EF9298
:10049000FF920F931F93CF93DF930F92CDB7DEB7E9
:1004A0008C01FC011082118281B18F7381B9CE0160
:1004B00001967C010E9475014AEF842E912CD12C6B
:1004C000C12CB12CA12C66E0C7010E947E0196953B
:1004D000879596958795A80EB91E67E0C7010E947B
:1004E0007E019695879596958795C80ED91E91E0C1
:1004F000891A910841F72AEF30E0C501B9010E943D
:100500004703F8016083C601B9010E944703618374
:10051000C7010E947B010F90DF91CF911F910F9136
:10052000FF90EF90DF90CF90BF90AF909F908F9013
:1005300008950F931F93CF93DF930F92CDB7DEB73C
:10054000162FCE0101960E947501612FCE010196F2
:100550000E947E018C01CE0101960E947B01C801A0
:1005600096958795969587950F90DF91CF911F91DE
:100570000F91089584B18C6384B9089568BD84B5E2
:10058000816284BD84B58F7E84BD85B5826085BD62
:10059000249A2D98089568BD84B5816284BD84B580
:1005A0008F7E84BD85B5826085BD84B1806384B94A
:1005B0002D9A089567BD84B5816884BD84B58F7B0D
:1005C00084BD85B5826085BD239A2A98089567BD4C
:1005D00084B5816884BD84B58F7B84BD85B5826018
:1005E00085BD84B18C6084B92A9A08950F931F93B6
:1005F000CF93DF938C01FB019A018091000190E081
:10060000CC27DD27C81BD90BBE01EC17FD072CF04A
:10061000BC01E817F9070CF4BF012C173D072CF0BB
:10062000EC01281739070CF4E90177FF0FC0619539
:10063000C8010E94E7026C2FD7FF0CC06195C8016A
:10064000DF91CF911F910F910C94CB02C8010E94B2
:10065000DA02F1CFC801DF91CF911F910F910C9475
:10066000BE0217BC18BC089500D000D0CDB7DEB7CD
:10067000CE0101960E945500CE0101960E947F0096
:1006800090E080E00F900F900F900F900895AA1BBC
:10069000BB1B51E107C0AA1FBB1FA617B70710F06D
:1006A000A61BB70B881F991F5A95A9F7809590959F
:1006B000BC01CD0108950E946F030C9450040E9468
:1006C000490458F00E94420440F029F45F3F29F0A9
:1006D0000C94390451110C9484040C943F040E942E
:1006E000610468F39923B1F3552391F3951B550BDE
:1006F000BB27AA2762177307840738F09F5F5F4FF5
:10070000220F331F441FAA1FA9F335D00E2E3AF033
:10071000E0E832D091505040E695001CCAF72BD04B
:10072000FE2F29D0660F771F881FBB1F261737079C
:100730004807AB07B0E809F0BB0B802DBF01FF27CE
:1007400093585F4F3AF09E3F510578F00C9439046E
:100750000C9484045F3FE4F3983ED4F38695779538
:100760006795B795F7959F5FC9F7880F911D969587
:10077000879597F90895E1E0660F771F881FBB1FE3
:10078000621773078407BA0720F0621B730B840B90
:10079000BA0BEE1F88F7E09508950E94690488F06F
:1007A0009F5798F0B92F9927B751B0F0E1F0660F35
:1007B000771F881F991F1AF0BA95C9F714C0B13076
:1007C00091F00E948304B1E008950C948304672F94
:1007D000782F8827B85F39F0B93FCCF386957795A5
:1007E0006795B395D9F73EF490958095709561958E
:1007F0007F4F8F4F9F4F0895E89409C097FB3EF4B9
:1008000090958095709561957F4F8F4F9F4F99235D
:10081000A9F0F92F96E9BB279395F69587957795DB
:100820006795B795F111F8CFFAF4BB0F11F460FF9B
:100830001BC06F5F7F4F8F4F9F4F16C0882311F0F3
:1008400096E911C0772321F09EE8872F762F05C007
:10085000662371F096E8862F70E060E02AF09A95A2
:10086000660F771F881FDAF7880F9695879597F997
:10087000089597F99F6780E870E060E008959FEF22
:1008800080EC089500240A94161617061806090627
:10089000089500240A9412161306140605060895F6
:1008A000092E0394000C11F4882352F0BB0F40F47E
:1008B000BF2B11F460FF04C06F5F7F4F8F4F9F4FBE
:1008C000089557FD9058440F551F59F05F3F71F040
:1008D0004795880F97FB991F61F09F3F79F08795A7
:1008E0000895121613061406551FF2CF4695F1DF30
:1008F00008C0161617061806991FF1CF86957105C0
:10090000610508940895E894BB2766277727CB01F3
:1009100097F908950E949D040C9450040E9442048B
:1009200038F00E94490420F0952311F00C9439040A
:100930000C943F0411240C9484040E94610470F30D
:10094000959FC1F3950F50E0551F629FF001729F74
:10095000BB27F00DB11D639FAA27F00DB11DAA1F83
:10096000649F6627B00DA11D661F829F2227B00DD0
:10097000A11D621F739FB00DA11D621F839FA00D5B
:10098000611D221F749F3327A00D611D231F849FAB
:10099000600D211D822F762F6A2F11249F57504002
:1009A0009AF0F1F088234AF0EE0FFF1FBB1F661F7D
:1009B000771F881F91505040A9F79E3F510580F046
:1009C0000C9439040C9484045F3FE4F3983ED4F310
:1009D000869577956795B795F795E7959F5FC1F7EA
:1009E000FE2B880F911D9695879597F90895F89499
:0209F000FFCF37
:0209F200FF9B69
:00000001FF
