:100000000C943E000C9448000C9448000C9448005A
:100010000C9448000C9448000C9448000C94480040
:100020000C9448000C9448000C9448000C94480030
:100030000C9448000C9448000C9448000C94480020
:100040000C9448000C9448000C9448000C94480010
:100050000C9448000C9448000C9448000C94480000
:100060000C9448000C9448000C9448000C944800F0
:100070000C9448000C9448000C94480011241FBEB6
:10008000CFEFD8E0DEBFCDBF0E94F3000C941A0181
:100090000C9400008F929F92AF92BF92CF92DF920A
:1000A000EF92FF920F931F93CF93DF930F92CDB7F1
:1000B000DEB78C010E94C700F8011182128281B163
:1000C0008F7381B9CE0101967C010E94C7004AEF6F
:1000D000842E912CD12CC12CB12CA12C66E0C7010F
:1000E0000E94D0009695879596958795A80EB91E83
:1000F00067E0C7010E94D0009695879596958795F1
:10010000C80ED91E91E0891A910841F72AEF30E014
:10011000C501B9010E940601F8016183C601B90158
:100120000E9406016283C7010E94CD000F90DF91FB
:10013000CF911F910F91FF90EF90DF90CF90BF90E4
:10014000AF909F908F9008950E94D00096958795CC
:100150009695879508951092C5008FEC8093C40002
:100160001092C00088E18093C10086E08093C200B5
:1001700008958091C00087FFFCCF8091C60008954C
:100180008091C00085FFFCCF6093C6000895109257
:100190007C0086E880937A00089510927A00089592
:1001A00080917C00807E80937C0080917C006770D1
:1001B000682B60937C0080917A00806480937A0041
:1001C00080917A0084FFFCCF80917A0080618093D7
:1001D0007A00209178008091790090E0982F88270C
:1001E000820F911D089500D000D0CDB7DEB7CE01AB
:1001F00001960E944A008E010C5F1F4FC8010E94A9
:10020000AB006A81C8010E94C000FBCFAA1BBB1BC8
:1002100051E107C0AA1FBB1FA617B70710F0A61B06
:10022000B70B881F991F5A95A9F780959095BC0127
:08023000CD010895F894FFCF01
:00000001FF
